:020000040800F2
:1000000058050020D90100082D070008E106000866
:100010002907000811030008CD11000800000000A6
:10002000000000000000000000000000090C0008B3
:10003000150300080000000031090008CD0C00087D
:10004000F3010008F3010008F3010008F3010008C0
:10005000F3010008F3010008590300085B030008DE
:10006000F3010008F3010008F3010008F3010008A0
:10007000F3010008F3010008F3010008F301000890
:10008000F3010008F301000800000000F30100087C
:10009000F3010008F3010008F3010008F301000870
:1000A000F3010008F3010008F3010008E10D000866
:1000B000F301000800000000F30100080000000048
:1000C000F301000800000000F3010008F30100083C
:1000D000F3010008F3010008F3010008000000002C
:1000E0000000000000000000F3010008F301000818
:1000F000F3010008F3010008F3010008F301000810
:10010000F30100080000000000000000F3010008F7
:1001100000000000000000000000000000000000DF
:1001200000000000000000000000000000000000CF
:1001300000000000000000000000000000000000BF
:1001400000000000000000000000000000000000AF
:100150000000000000000000F3010008F3010008A7
:10016000F3010008F3010008000000000000000097
:10017000000000000000000000000000000000007F
:10018000000000000000000000000000000000006F
:10019000000000000000000000000000000000005F
:1001A000000000000000000000000000000000004F
:1001B000000000000000000000000000000000003F
:1001C0000000DFF810D000F019F8000000480047E8
:1001D000BD12000858050020064880470648004721
:1001E000FEE7FEE7FEE7FEE7FEE7FEE7FEE7FEE7E7
:1001F000FEE7FEE7D10C0008C3010008064C074DDE
:1002000006E0E06840F0010394E8070098471034E6
:10021000AC42F6D3FFF7D9FF80190008A0190008F7
:100220000D48006840F008000B49086000BF0A480C
:10023000006800F008000028F9D10748006840F085
:1002400004000549086000BF0348006800F004008E
:100250000028F9D1704700000824014010B50020A3
:100260000A49087348734FF46020086000208860D2
:1002700001200871084600F01DF8012000F008F880
:10028000FFF7CEFF052000F0F3FF10BD8C0000202B
:1002900030B10749096841F00101054A116005E0E4
:1002A0000349096821F00101014A1160704700000B
:1002B0000824014010B5014600200022124B1868A6
:1002C00020F480700B7B40EA03200F4B18601B1D4D
:1002D00018680E4B18400C688B6823434C7B43EA2C
:1002E00044031843084B1B1D1860074B283318683C
:1002F00020F470000B795B1EDBB21A4340EA025017
:10030000014B2833186010BD04240140FDF7F1FFB4
:1003100000BFFEE7704700000EB50121084600F05F
:1003200033FB012001900A4800680A49B0FBF1F054
:10033000401E80B2ADF800000020ADF8080010208B
:10034000ADF802006946800600F0FEFC0EBD00001C
:100350000000002040420F007047704701490860CC
:100360007047000014040140002123498279002ACB
:100370003AD00A46126803689A430B461A600A1D6F
:10038000126803689A430B1D1A60027911440A68C7
:1003900003681A430A60184A0832126803689A43CD
:1003A000154B08331A601A1D126803689A43124BE2
:1003B0000C331A604279102A0ED11A1F1268036892
:1003C0001A430D4B08331A601A1D126803681A434A
:1003D000094B0C331A600DE00749427911440A6851
:1003E00003681A430A6005E0027911440A68036849
:1003F0009A430A6070470000000401400149C86048
:10040000704700000020024030B504464FF47020D1
:1004100000F072F80546B5B90C48006940F00200DA
:100420000A49086108464461006940F040000861DB
:100430004FF4702000F060F805460448006920F091
:10044000020002490861284630BD00000020024039
:1004500000200A49C96801F0010109B101200CE03E
:100460000649C96801F0100109B1022005E00349FD
:10047000C96801F0040101B1032070470020024067
:100480000348006940F0800001490861704700009E
:100490000020024070B504460D464FF4702000F075
:1004A0002BF806468EB90A48006940F00100084959
:1004B000086125604FF4702000F01EF806460448DD
:1004C000006920F0010002490861304670BD00005B
:1004D000002002400548006900F0800020B1044877
:1004E000024948600348486070470000002002400D
:1004F00023016745AB89EFCD00B50346012200BF5C
:10050000FFF7A6FF02465B1E012A01D1002BF7D19F
:10051000012A00D10422104600BD00001CB50620AF
:10052000009003208DF8040069464FF0904000F0E1
:100530006FF80120009000208DF804008DF807006E
:1005400069464FF0904000F063F8082000900020CA
:100550008DF8040001208DF8070069464FF09040A7
:1005600000F056F88020009000208DF80400012053
:100570008DF8070069464FF0904000F049F84FF4BD
:100580008070009002208DF8050001208DF8040095
:1005900000208DF8060002208DF8070069464FF014
:1005A000904000F035F84020009002208DF80500C2
:1005B00001208DF8040000208DF8060002208DF83F
:1005C000070069464FF0904000F022F8202000908C
:1005D00002208DF8050001208DF8040000208DF820
:1005E000060002208DF8070069464FF0904000F0A9
:1005F0000FF8C020009000208DF8040002208DF834
:1006000007006946014800F003F81CBD00040048DB
:1006100030B50A46002100BF3AE001248C4013683F
:100620002340A3B31379012B02D01379022B16D1E7
:1006300083684D000324AC40A343836053794C008E
:10064000A340846823438360436801248C40A34310
:100650004360436894798C40A4B223434360C368E9
:100660004D000324AC40A343C360D3794C00A340A6
:10067000C4682343C36003684D000324AC40A34314
:10068000036013794C00A340046823430360491CB2
:100690001029C2D330BDF0B5002300244D07ED0E64
:1006A00002FA05F3CE1000F1200555F826504E074A
:1006B000F70E0F26BE40B543CF1000F1200646F8D6
:1006C0002750CE1000F1200555F8265045EA0304C6
:1006D000CE1000F1200545F82640F0BD816170473D
:1006E00000BFFEE74CF6CC400149086070470000AF
:1006F000003000404AF6AA20014908607047000017
:100700000030004001494860704700000030004060
:1007100001498860704700000030004001490860CE
:10072000704700000030004000BFFEE770470EB584
:100730000C208DF8080000208DF809008DF80A00C3
:1007400001208DF80B0002A800F078F84FF4C0608B
:1007500000F0DAF806208DF8080000208DF8090076
:100760008DF80A0001208DF80B0002A800F066F851
:100770000321002000F04AFA0820009000208DF8A4
:1007800004000C208DF8050001208DF80600684655
:10079000FFF7EAFD0721002000F038FA80200090E2
:1007A00000208DF804000C208DF8050001208DF844
:1007B00006006846FFF7D8FD4FF4C06000F0A4F8CB
:1007C00007208DF8080000208DF809008DF80A0038
:1007D00001208DF80B0002A800F030F84FF4003033
:1007E000FFF7BCFD4FF40030009000208DF80400AE
:1007F00008208DF8050001208DF806006846FFF7F7
:10080000B3FD02208DF8080000208DF809008DF856
:100810000A0001208DF80B0002A800F00FF81B2041
:100820008DF8080000208DF809008DF80A000120DD
:100830008DF80B0002A800F001F80EBD70B5002184
:1008400000220023C478002C4DD02C4C246804F4E2
:10085000E064B4F5E06F02D100BF042326E0274C2A
:10086000246804F4E064B4F5C06F02D101220323CC
:100870001CE0224C246804F4E064B4F5A06F02D1BB
:100880000222022312E01D4C246804F4E064B4F553
:10089000806F02D10322012308E0184C246804F47D
:1008A000E064B4F5407F01D1042200234478C2F112
:1008B000040504FA05F18478C3F104060F253541D7
:1008C0002C40214309010E4C0678A155047804F010
:1008D0001F050124AC4005786D11AD0005F1E02540
:1008E000C5F8004109E0047804F01F040125A54083
:1008F000044C0678761144F8265070BD0CED00E0EB
:1009000000E400E080E100E002490143024A116096
:10091000704700000000FA050CED00E0024A0A40B2
:100920000243024B1A60704780FFFF1F08ED00E092
:10093000704700000B49496821F44041094A516061
:100940001146496882B21143064A51601146096B4B
:1009500021F4807111631146096B41EA1041116362
:10096000704700000010024029B1064A5269024354
:10097000044B5A6104E0034A52698243014B5A61B5
:10098000704700000010024029B1064AD2690243B4
:10099000044BDA6104E0034AD2698243014BDA6115
:1009A000704700000010024029B1064A1269024354
:1009B000044B1A6104E0034A12698243014B1A6135
:1009C000704700000010024029B1064A92690243B4
:1009D000044B9A6104E0034A92698243014B9A6195
:1009E000704700000010024029B1064AD268024355
:1009F000044BDA6004E0034AD2688243014BDA60B8
:100A0000704700000010024010B51548FFF792FF34
:100A100001214FF4C020FFF7A7FF01214802FFF793
:100A2000D3FF012144F20100FFF7CEFF01210807A7
:100A3000FFF7AAFF032000F0D9F801214FF4C020EE
:100A4000FFF792FF01214804FFF79EFF0121880371
:100A5000FFF7BAFF01210803FFF7B6FF10BD000042
:100A600000800001F0B500210022002400250026AE
:100A70000023584F7F6807F00C0121B1042905D0ED
:100A800008292BD105E0544F07602AE0524F076038
:100A900027E0504F7F6807F470124E4F7F6807F0D1
:100AA0000064E70E3C0104EB92420F2A01D3521C72
:100AB00000E0921C474F7F6807F480351DB9474F0F
:100AC0005743076009E0434FFF6A07F00F077E1C9A
:100AD000414FB7FBF6F75743076002E03E4F076010
:100AE00000BF00BF3B4F7F6807F0F00109093C4F92
:100AF0007B5C0768DF404760364F7F6807F4E06142
:100B0000090A384F7B5C4768DF408760314F7F6858
:100B100007F46051C90A334F7B5C4768DF40C76008
:100B20002C4F3F6B07F48077B7F5807F02D02E4FB4
:100B300007611FE0274F7F68C7F3813131B1012979
:100B400008D002290AD0032913D10EE0C7687F0814
:100B500007610EE0C768BF0807610AE04FF0060CA6
:100B6000C768B7FBFCF7076103E0C768FF080761C8
:100B700000BF00BF174F3F6B07F04007402F03D067
:100B800048F21207476102E04FF400474761114FF6
:100B90003F6B07F0030717B9C768876119E00D4F6E
:100BA0003F6B07F00307012F02D10768876110E050
:100BB000084F3F6B07F00307022F02D1BF03876185
:100BC00007E0044F3F6B07F00307032F01D1024FEB
:100BD0008761F0BD0010024000127A0000093D005C
:100BE0001400002024000020809FD5000549096BD7
:100BF00021F00301034A11631146096B014311639C
:100C000070470000001002407047000030B500221D
:100C10008B071C0F0F2303FA04F20B4B8C1053F8B5
:100C200024309343084C8D1044F8253023468C1013
:100C300053F824308C07240F00FA04F42343024CA9
:100C40008D1044F8253030BD0800014010B500F08B
:100C500001F810BD1A4840681949486008464068C4
:100C600048600846406848600846406815490840A2
:100C700013494860084640681349084310494860D2
:100C80000846006840F08070086000BF0C480068AB
:100C900000F000700028F9D00948406820F00300F7
:100CA000074948600846406840F00200486000BFBD
:100CB0000348406800F00C000828F9D17047000094
:100CC00000100240FFFFC2F7000004087047000058
:100CD00010B51948006840F001001749086008463F
:100CE000406816490840144948600846006814499D
:100CF0000840114908600846006820F48020086018
:100D0000084640680F4908400B4948600846C06AD9
:100D100020F00F00C8620846006B40F24311884380
:100D2000054908630846406B20F001004863002035
:100D30008860FFF78BFF10BD001002400C003F08D9
:100D4000FFFFF6FEFFFFC0F700220288154B984216
:100D500005D0B0F1804F02D0134B984204D14FF62A
:100D60008F731A404B881A43104B984204D04FF6A9
:100D7000FF431A400B891A4302804B68C3620B88F9
:100D80000385084B984208D0094B984205D0094B7F
:100D9000984202D0084B984201D18B7A03860123F6
:100DA00083827047002C0140000400400010004086
:100DB00000400140004401400048014021B1028848
:100DC00042F00102028004E002884FF6FE731A40EE
:100DD000028070470146486A7047416270470000D0
:100DE00070B5002500240821554800F04EF930B1B7
:100DF0000821534800F0C8F8514800F009F951495A
:100E00004F4800F042F900287ED04D4800F000F92C
:100E1000C6B24D480078282823D24C48007800BB41
:100E20004B4849490978465447480078401C464990
:100E3000087008460078012807D145480578AF2D8D
:100E400001D00020087000250BE03F480078022800
:100E500007D13F484478AF2C02D000203A490870AF
:100E6000002439480078282868D139484078384922
:100E7000097800EB0120374908800846047800888B
:100E800004EB2020C4B2324880788870084680780D
:100E90002044C4B22E48C078C8700846C0782044A8
:100EA000C4B22B4800790871084600792044C4B2C6
:100EB00000250AE0681D2649095C2648401D415569
:100EC000405D2044C4B2681CC5B2202DF2DB20482E
:100ED00090F825001F4981F825001D4890F827004B
:100EE0001B4991F8261000EB01201A49C8840846D6
:100EF00000884AF6AF71884212D11648C08C4FF66E
:100F0000FA2188420CD100E00EE0124890F825004A
:100F1000A04203D101200D49087001E00D4800BF37
:100F200000200949087009E00B49054800F0ADF8B8
:100F3000012803D10849024800F026F870BD0000DE
:100F400000380140050105005D0000205C00002024
:100F500008010020E00000201603140010B504462C
:100F60000BE02178074800F058F800BF80210548C1
:100F700000F083F80028F9D0641C20780028F0D114
:100F800010BD00000038014010B5002200230A0CFB
:100F9000012404FA02F3036210BD000000B589B019
:100FA000002206211848FFF776FB00220721164889
:100FB000FFF771FBC020079002208DF82000002071
:100FC0008DF8220002208DF8210000208DF82300EA
:100FD00007A90D48FFF71CFB0C4800F023F84FF45D
:100FE00016500190002002900390049006900C206F
:100FF000059001A9054800F08BF80121034800F095
:1010000031F809B000BD000000040048003801407C
:101010000146888CC0F308007047C1F308020285BE
:101020007047000010B504460C48844209D10121E4
:101030008803FFF7D9FC00214FF48040FFF7D4FC70
:101040000BE00748844208D101214804FFF7ACFCBB
:1010500000214FF40030FFF7A7FC10BD003801401D
:101060000044004021B1026842F00102026003E046
:10107000026822F00102026070470246D06908400F
:1010800008B1012070470020FCE730B502460B464E
:10109000002400210025C3F30725D9B2012000FA5E
:1010A00001F1012D02D11068014006E0022D02D1AC
:1010B0005068014001E0906801401C0C012000FADA
:1010C00004F4D069044011B10CB1012030BD0020FE
:1010D000FCE7F0B5034600250020184601F47F45E3
:1010E000CCB2B5F5407F01D1083003E0B5F5007F03
:1010F00000D1001D2AB106680127A7403E430660C3
:1011000004E007680126A640B7430760F0BD000071
:101110002DE9F04188B004460D460027B846002668
:10112000206820F001002060666826F44056A86818
:1011300006436660266841F20C608643E968686889
:1011400008432969084306432660A66826F44076CA
:1011500068690643A66001A8FFF784FC1A48844228
:1011600002D1DDF81C8001E0DDF80C80206800F47D
:10117000004060B14FEA48002968B0FBF1F74FEA40
:1011800048002968B0FBF1F201FB120607E028686D
:10119000B8FBF0F72868B8FBF0F100FB118628686F
:1011A000B6EB500F00D37F1C206800F4004038B12C
:1011B000C7F342064FF6F07107EA010040EA06075E
:1011C000A78108B0BDE8F0810038014000BFFEE70C
:1011D00002E008C8121F08C1002AFAD17047704700
:1011E000002001E001C1121F002AFBD1704700005E
:1011F0000021014A002070470064000810B5FFF785
:1012000069F91820104908603420FFF7F7F800202A
:101210000E4908600FE00D4909680D4A531403FB9D
:101220000120FFF7F1F83420FFF7E8F807480068DD
:10123000401C06490860054800680349096888425F
:10124000E9D3FFF71DF910BD6400002068000020FD
:1012500000640008002000BF04E00021034A11548C
:10126000411CC8B22028F8DB704700009C00002019
:1012700010B5044603E04FF47A7000F006F8200041
:10128000A4F101018CB2F6D110BD10B504460121C4
:101290008807FFF793FD21464FF08040FFF79DFD43
:1012A00004E04FF08040FFF795FD84B2012CF8DC9C
:1012B00000214FF08040FFF781FD10BDFFF7A4FB38
:1012C000FFF72CF9FFF733FA00214FF00060FFF72A
:1012D00025FB45F25550FFF721FA0620FFF712FAD9
:1012E0004FF4C360FFF714FAFFF704FAFFF7FAF9B7
:1012F000FEF7B4FF4FF480714FF09040FFF7EEF926
:1013000040214FF09040FFF7E9F9FFF747FE012237
:10131000C549C648FFF7DDFEFEF7FEFFFFF79AFF5F
:101320000020C34908700122B72000F019FA7AE1C1
:10133000FFF7E0F94FF47A70FFF79AFFBD480078A5
:10134000401CBC490870BC48007801286FD10020BF
:101350000870BA48C078B02827D1FFF77BFF00F0AB
:101360007DF9B7480068000EB1490870B4480068BC
:10137000000C4870B2480088000A8870B0480078B5
:10138000C870B0480068000E0871AE480068000CD4
:101390004871AC480088000A8871AA480078C87172
:1013A0000822B12000F0DCF914E1A448C078B2288A
:1013B0000ED1FFF74FFFFFF71BFFA3490870084648
:1013C00000789B4908700122B32000F0C9F901E1BF
:1013D0009A48C078B4281CD1FFF73CFFFFF708FFFC
:1013E0009949087008460078914908709648007835
:1013F00030B94FF4FA70FFF73BFF00F05FF9E9E016
:10140000914800788A4908700122B52000F0A8F9B7
:10141000E0E08A48C078B8280AD1FFF71BFFFFF741
:10142000EDFE00228249B92000F09AF9D2E0D5E021
:101430008248C078BC2847D1FFF70CFF00F00EF9B6
:101440007E4800790C2837D17C48007A01067B4819
:10145000C07901EB00417948807901EB00207749A0
:1014600049790844794908607448007B010673484B
:10147000C07A01EB00417148807A01EB00216F488E
:10148000407A0844724908606C48007C01066B4849
:10149000C07B01EB00416948807B01EB002167487C
:1014A000407B08446749086000F024FA0022604944
:1014B000BD2000F055F98DE003205D490870012240
:1014C000BD2000F04DF985E05C48C078BA2866D1AF
:1014D00000240026FFF7BEFE58480079042856DD98
:1014E0005648007A01065548C07901EB004153483F
:1014F000807901EB002051494979461800BF26E068
:10150000072000EB84014D48401D405C0106062089
:1015100000EB84024948401D805C01EB004105203E
:1015200000EB84024548401D805C01EB0021042053
:1015300000EB84024148401D805C08444549086036
:1015400008460068444941F82400601CC4B23B4985
:101550000879C11700EB91718910491EA142CFDCB7
:1015600036480579E81705EB90708010401EC2B22E
:101570003949304600F064F933490870084600786C
:101580002B4908700122BB2000F0EAF806E0032096
:10159000274908700122BB2000F0E2F81AE0274832
:1015A000C078B62809D1FFF755FE00202049087001
:1015B0000122B72000F0D4F80CE02048C078BE2803
:1015C00008D1FFF747FE0020194908700122BF200B
:1015D00000F0C6F800201849087024E0FFF708FE64
:1015E00019490870134800780A2810DD0846007869
:1015F00030B94FF4FA70FFF73BFE00F05FF812E0ED
:10160000FFF728FE10480078094908700BE0FFF743
:1016100021FE08480078064908700748007848709D
:101620000648C078887083E605010500003801404F
:101630009C000020550000205C000020E0000020FD
:101640002C000020800000205400002078000020A2
:101650007C00002058000020BC00002011481249E6
:101660000860084600680068104908600D48001DC1
:101670000D4908600846006800680D49086009487F
:101680000830094908600846006800680949086090
:1016900004480C30044908600846006800680649A0
:1016A00008607047009C0008700000207400002053
:1016B000780000207C0000208000002010B50F483A
:1016C000006800F00050B0F1005F12D10B48001D1F
:1016D00000680B490860084600680A490860074925
:1016E000086880F3088800BF62B606480068804733
:1016F00002E005A0FFF732FC10BD00000064000806
:101700008800002084000020202D2D206A756D7037
:10171000206661696C6564200D0A00002DE9F041C6
:1017200006460F46002412E00B4D00E06D1E4021DE
:101730000A48FFF7A2FC08B9002DF7DC002D04DDF4
:10174000315D0648FFF769FC00E002E0641CBC4222
:10175000EADB00BFBDE8F08100127A0000380140EA
:101760002DE9F04780460E461746DFF8CC9000255D
:1017700000244AF6AF70494608800846057800788C
:101780002E4908704846008805EB2020C5B248461F
:10179000008800124870484680782844C5B2484600
:1017A00080788870484680F80380C0782844C5B2A5
:1017B0004846C078C8704846077100792844C5B2C9
:1017C0004846C078087100BF18E0BC4207DB002122
:1017D0001948401D0155601D184A115407E0315D3C
:1017E0001548401D0155315D601D144A11541248C1
:1017F000401D005D2844C5B2601CC4B2202CE4DB4F
:101800000D4880F8255090F825000C4981F82500F6
:101810004FF6FA200849C8840846C08C00120749D0
:1018200081F826000448007881F8270028214846DE
:10183000FFF774FFBDE8F087E000002030010020D2
:101840002DE9F04706460F4615464FF00008C14601
:101850000024A246FEF73EFE21483044214908609C
:1018600000BF12E057F8248041461E480068FEF78A
:1018700011FE1D4908701B480068001D19490860C9
:101880003420FEF7BBFD601CC4B2AC42EADBFEF7BD
:10189000F7FD1348304415490860002411E057F85B
:1018A000248012480068D0F80090C84502D04FF05C
:1018B000010A08E00D480068001D0C490860601C22
:1018C000C4B2AC42EBDB00BFFFF7C8FE06EB8500FD
:1018D0000749086000F00EF85046BDE8F0870000A8
:1018E000006400086C0000206000002070000020F0
:1018F0007400002010B5FEF7EDFD3420FEF77EFDEC
:101900001948FEF781FD3420FEF778FD174801687D
:101910001548FEF7BFFD164908703420FEF76EFD2E
:10192000144801681048001DFEF7B4FD1049087006
:101930003420FEF763FD104801680B480830FEF7BD
:10194000A9FD0B4908703420FEF758FD0B480168CB
:1019500005480C30FEF79EFD054908703420FEF75F
:101960004DFDFEF78DFD10BD009C000874000020A9
:1019700060000020780000207C0000208000002013
:10198000A0190008000000208C000000D011000801
:101990002C1A00088C000020CC040000E011000884
:1019A00000A24A040000000000000000010203043D
:1019B00006070809000000000000000001020304FF
:1019C00006070809000000000102030401020304E5
:1019D0000000000000000000000000000000000007
:1019E00000000000000000000000000000000000F7
:1019F00000000000000000000000000000000000E7
:101A000000000000000000000000000000000000D6
:101A100000000000000000000000000000000000C6
:0C1A2000000000000000000000000000BA
:04000005080001C32B
:00000001FF
