:020000040800F2
:1000000060050020D9010008E108000895080008F3
:10001000DD08000821040008551300080000000056
:10002000000000000000000000000000BD0D0008FE
:100030002504000800000000E50A0008810E000801
:10004000F3010008F3010008F3010008F3010008C0
:10005000F3010008F301000869040008890400089E
:10006000F3010008F3010008F3010008F3010008A0
:10007000F3010008F3010008F3010008F301000890
:10008000F3010008F301000800000000F30100087C
:10009000F3010008F3010008F3010008F301000870
:1000A000F3010008F3010008F3010008950F0008B0
:1000B000F301000800000000F30100080000000048
:1000C000F301000800000000F3010008F30100083C
:1000D000F3010008F3010008F3010008000000002C
:1000E0000000000000000000F3010008F301000818
:1000F000F3010008F3010008F3010008F301000810
:10010000F30100080000000000000000F3010008F7
:1001100000000000000000000000000000000000DF
:1001200000000000000000000000000000000000CF
:1001300000000000000000000000000000000000BF
:1001400000000000000000000000000000000000AF
:100150000000000000000000F3010008F3010008A7
:10016000F3010008F3010008000000000000000097
:10017000000000000000000000000000000000007F
:10018000000000000000000000000000000000006F
:10019000000000000000000000000000000000005F
:1001A000000000000000000000000000000000004F
:1001B000000000000000000000000000000000003F
:1001C0000000DFF810D000F019F8000000480047E8
:1001D000E9140008600500200648804706480047EB
:1001E000FEE7FEE7FEE7FEE7FEE7FEE7FEE7FEE7E7
:1001F000FEE7FEE7850E0008C3010008064C074D28
:1002000006E0E06840F0010394E8070098471034E6
:10021000AC42F6D3FFF7D9FF501E0008701E00084D
:100220000D48006840F008000B49086000BF0A480C
:10023000006800F008000028F9D10748006840F085
:1002400004000549086000BF0348006800F004008E
:100250000028F9D1704700000824014010B50020A3
:100260000A49087348734FF46020086000208860D2
:1002700001200871084600F023F8012000F008F87A
:10028000FFF7CEFF052001F009F910BD9000002016
:1002900030B10749096841F00101054A116005E0E4
:1002A0000349096821F00101014A1160704700000B
:1002B000082401400148006880B270474C24014086
:1002C00010B5014600200022124B186820F48070FF
:1002D0000B7B40EA03200F4B18601B1D18680E4B68
:1002E00018400C688B6823434C7B43EA4403184353
:1002F000084B1B1D1860074B2833186820F470004A
:100300000B795B1EDBB21A4340EA0250014B2833E3
:10031000186010BD04240140FDF7F1FF70B50346DD
:100320000C4600200021092B13DD334D2868A3F172
:100330000A0505EB4506072505FA06F18843A3F1F2
:100340000A0505EB450502FA05F108432A4D286028
:1003500010E0294D2D1D286803EB4306072505FAFB
:1003600006F1884303EB430502FA05F10843224DE9
:100370002D1D2860072C13DA1F4D28352868651EAF
:1003800005EB85061F2505FA06F18843651E05EB7A
:10039000850503FA05F10843174D283528602AE042
:1003A0000D2C13DA144D24352868E51F05EB85065E
:1003B0001F2505FA06F18843E51F05EB850503FABD
:1003C00005F108430C4D2435286014E00A4D203512
:1003D0002868A4F10D0505EB85061F2505FA06F131
:1003E0008843A4F10D0505EB850503FA05F10843E3
:1003F000014D2035286070BD0C24014030B1074903
:10040000096841F4A001054A116005E00349096843
:1004100021F4A001014A1160704700000824014046
:1004200000BFFEE7704700000EB50121084600F04E
:1004300085FB012001900A4800680A49B0FBF1F0F1
:10044000401E80B2ADF800000020ADF8080010207A
:10045000ADF802006946800600F050FD0EBD0000B8
:100460000000002040420F0010B500F01DFA0820E7
:1004700000F03AF828B1082000F030F801200149D6
:10048000087010BD3100002010B500F00DFA80207A
:1004900000F02AF8C0B10E48007848B100200C499D
:1004A0000870C82000F0FAFF802000F017F80BE079
:1004B000012008490870002007490860C82000F0A2
:1004C000EDFF802000F00AF800F0EEF910BD00000A
:1004D0004C00002031000020340000200149086059
:1004E00070470000140401400146064800680840B7
:1004F00030B1044814380068084008B10120704742
:100500000020FCE714040140002123498279002ADD
:100510003AD00A46126803689A430B461A600A1DCD
:10052000126803689A430B1D1A60027911440A6825
:1005300003681A430A60184A0832126803689A432B
:10054000154B08331A601A1D126803689A43124B40
:100550000C331A604279102A0ED11A1F12680368F0
:100560001A430D4B08331A601A1D126803681A43A8
:10057000094B0C331A600DE00749427911440A68AF
:1005800003681A430A6005E0027911440A680368A7
:100590009A430A6070470000000401400149C860A6
:1005A000704700000020024030B504464FF4702030
:1005B00000F072F80546B5B90C48006940F0020039
:1005C0000A49086108464461006940F0400008613A
:1005D0004FF4702000F060F805460448006920F0F0
:1005E000020002490861284630BD00000020024098
:1005F00000200A49C96801F0010109B101200CE09D
:100600000649C96801F0100109B1022005E003495B
:10061000C96801F0040101B10320704700200240C5
:100620000348006940F080000149086170470000FC
:100630000020024070B504460D464FF4702000F0D3
:100640002BF806468EB90A48006940F001000849B7
:10065000086125604FF4702000F01EF8064604483B
:10066000006920F0010002490861304670BD0000B9
:10067000002002400548006900F0800020B10448D5
:10068000024948600348486070470000002002406B
:1006900023016745AB89EFCD00B50346012200BFBA
:1006A000FFF7A6FF02465B1E012A01D1002BF7D1FE
:1006B000012A00D10422104600BD00001CB506200E
:1006C000009003208DF8040069464FF0904000F040
:1006D0006FF80120009000208DF804008DF80700CD
:1006E00069464FF0904000F063F808200090002029
:1006F0008DF8040001208DF8070069464FF0904006
:1007000000F056F88020009000208DF804000120B1
:100710008DF8070069464FF0904000F049F84FF41B
:100720008070009002208DF8050001208DF80400F3
:1007300000208DF8060002208DF8070069464FF072
:10074000904000F035F84020009002208DF8050020
:1007500001208DF8040000208DF8060002208DF89D
:10076000070069464FF0904000F022F820200090EA
:1007700002208DF8050001208DF8040000208DF87E
:10078000060002208DF8070069464FF0904000F007
:100790000FF8C020009000208DF8040002208DF892
:1007A00007006946014800F003F81CBD000400483A
:1007B00030B50A46002100BF3AE001248C4013689E
:1007C0002340A3B31379012B02D01379022B16D146
:1007D00083684D000324AC40A343836053794C00ED
:1007E000A340846823438360436801248C40A3436F
:1007F0004360436894798C40A4B223434360C36848
:100800004D000324AC40A343C360D3794C00A34004
:10081000C4682343C36003684D000324AC40A34372
:10082000036013794C00A340046823430360491C10
:100830001029C2D330BDF0B5002300244D07ED0EC2
:1008400002FA05F3CE1000F1200555F826504E07A8
:10085000F70E0F26BE40B543CF1000F1200646F834
:100860002750CE1000F1200555F8265045EA030424
:10087000CE1000F1200545F82640F0BD0246106973
:10088000084008B1012070470020FCE781627047F2
:100890008161704700BFFEE74CF6CC40014908601B
:1008A00070470000003000404AF6AA200149086065
:1008B0007047000000300040014948607047000068
:1008C000003000400149886070470000003000405F
:1008D00001490860704700000030004000BFFEE79B
:1008E00070470EB50C208DF8080000208DF8090027
:1008F0008DF80A0001208DF80B0002A800F078F8AE
:100900004FF4C06000F0DAF806208DF808000020EF
:100910008DF809008DF80A0001208DF80B0002A85F
:1009200000F066F80321002000F04AFA0820009049
:1009300000208DF804000C208DF8050001208DF8B2
:1009400006006846FFF7E0FD0721002000F038FAB6
:100950008020009000208DF804000C208DF8050008
:1009600001208DF806006846FFF7CEFD4FF4C06009
:1009700000F0A4F807208DF8080000208DF8090089
:100980008DF80A0001208DF80B0002A800F030F865
:100990004FF40030FFF7A2FD4FF40030009000202C
:1009A0008DF8040008208DF8050001208DF8060060
:1009B0006846FFF7A9FD02208DF8080000208DF899
:1009C00009008DF80A0001208DF80B0002A800F044
:1009D0000FF81B208DF8080000208DF809008DF815
:1009E0000A0001208DF80B0002A800F001F80EBDEE
:1009F00070B5002100220023C478002C4DD02C4C6F
:100A0000246804F4E064B4F5E06F02D100BF04236D
:100A100026E0274C246804F4E064B4F5C06F02D1EA
:100A2000012203231CE0224C246804F4E064B4F5A2
:100A3000A06F02D10222022312E01D4C246804F4AC
:100A4000E064B4F5806F02D10322012308E0184C62
:100A5000246804F4E064B4F5407F01D1042200234B
:100A60004478C2F1040504FA05F18478C3F1040660
:100A70000F2535412C40214309010E4C0678A15524
:100A8000047804F01F050124AC4005786D11AD0019
:100A900005F1E025C5F8004109E0047804F01F04E1
:100AA0000125A540044C0678761144F8265070BD07
:100AB0000CED00E000E400E080E100E002490143C9
:100AC000024A1160704700000000FA050CED00E0DA
:100AD000024A0A400243024B1A60704780FFFF1F20
:100AE00008ED00E0704700000B49496821F44041DF
:100AF000094A51601146496882B21143064A516061
:100B00001146096B21F4807111631146096B41EAAA
:100B100010411163704700000010024029B1064ADD
:100B200052690243044B5A6104E0034A526982430A
:100B3000014B5A61704700000010024029B1064A7B
:100B4000D2690243044BDA6104E0034AD26982436A
:100B5000014BDA61704700000010024029B1064ADB
:100B600012690243044B1A6104E0034A126982438A
:100B7000014B1A61704700000010024029B1064A7B
:100B800092690243044B9A6104E0034A92698243EA
:100B9000014B9A61704700000010024029B1064ADB
:100BA000D2680243044BDA6004E0034AD26882430D
:100BB000014BDA60704700000010024010B5154884
:100BC000FFF792FF01214FF4C020FFF7A7FF01219B
:100BD0004802FFF7D3FF012144F20100FFF7CEFFE7
:100BE00001210807FFF7AAFF032000F0D9F801212F
:100BF0004FF4C020FFF792FF01214804FFF79EFF4A
:100C000001218803FFF7BAFF01210803FFF7B6FFB0
:100C100010BD000000800001F0B50021002200247A
:100C2000002500260023584F7F6807F00C0121B1F2
:100C3000042905D008292BD105E0544F07602AE08C
:100C4000524F076027E0504F7F6807F470124E4FF5
:100C50007F6807F00064E70E3C0104EB92420F2A24
:100C600001D3521C00E0921C474F7F6807F4803587
:100C70001DB9474F5743076009E0434FFF6A07F02C
:100C80000F077E1C414FB7FBF6F75743076002E0A2
:100C90003E4F076000BF00BF3B4F7F6807F0F00189
:100CA00009093C4F7B5C0768DF404760364F7F682F
:100CB00007F4E061090A384F7B5C4768DF408760D2
:100CC000314F7F6807F46051C90A334F7B5C476836
:100CD000DF40C7602C4F3F6B07F48077B7F5807F0C
:100CE00002D02E4F07611FE0274F7F68C7F3813185
:100CF00031B1012908D002290AD0032913D10EE00D
:100D0000C7687F0807610EE0C768BF0807610AE08F
:100D10004FF0060CC768B7FBFCF7076103E0C76834
:100D2000FF08076100BF00BF174F3F6B07F0400788
:100D3000402F03D048F21207476102E04FF400470A
:100D40004761114F3F6B07F0030717B9C768876109
:100D500019E00D4F3F6B07F00307012F02D1076821
:100D6000876110E0084F3F6B07F00307022F02D1A5
:100D7000BF03876107E0044F3F6B07F00307032FB2
:100D800001D1024F8761F0BD0010024000127A00CD
:100D900000093D001400002024000020809FD500A1
:100DA0000549096B21F00301034A11631146096BE0
:100DB00001431163704700000010024070470000BB
:100DC00030B500228B071C0F0F2303FA04F20B4BE4
:100DD0008C1053F824309343084C8D1044F8253080
:100DE00023468C1053F824308C07240F00FA04F4A7
:100DF0002343024C8D1044F8253030BD08000140DB
:100E000010B500F001F810BD1A4840681949486053
:100E100008464068486008464068486008464068A0
:100E2000154908401349486008464068134908437B
:100E3000104948600846006840F08070086000BFB4
:100E40000C48006800F000700028F9D0094840689C
:100E500020F00300074948600846406840F002005F
:100E6000486000BF0348406800F00C000828F9D132
:100E70007047000000100240FFFFC2F700000408A6
:100E80007047000010B51948006840F0010017498C
:100E900008600846406816490840144948600846FA
:100EA000006814490840114908600846006820F4A9
:100EB00080200860084640680F4908400B49486098
:100EC0000846C06A20F00F00C8620846006B40F276
:100ED00043118843054908630846406B20F0010030
:100EE000486300208860FFF78BFF10BD00100240B0
:100EF0000C003F08FFFFF6FEFFFFC0F7002202884C
:100F0000154B984205D0B0F1804F02D0134B984258
:100F100004D14FF68F731A404B881A43104B9842F6
:100F200004D04FF6FF431A400B891A4302804B68E6
:100F3000C3620B880385084B984208D0094B98423E
:100F400005D0094B984202D0084B984201D18B7AC8
:100F50000386012383827047002C01400004004077
:100F600000100040004001400044014000480140A2
:100F700021B1028842F00102028004E002884FF6AB
:100F8000FE731A40028070470146486A704741620A
:100F90007047000070B5002500240821554800F076
:100FA00038F930B10821534800F0B2F8514800F048
:100FB000F3F851494F4800F02CF900287ED04D48F5
:100FC00000F0EAF8C6B24D480078282823D24C48F1
:100FD000007800BB4B484949097846544748007897
:100FE000401C4649087008460078012807D145484A
:100FF0000578AF2D01D00020087000250BE03F4898
:101000000078022807D13F484478AF2C02D0002056
:101010003A490870002439480078282868D13948AE
:1010200040783849097800EB0120374908800846A4
:101030000478008804EB2020C4B23248807888709D
:10104000084680782044C4B22E48C078C87008464C
:10105000C0782044C4B22B48007908710846007952
:101060002044C4B200250AE0681D2649095C2648D0
:10107000401D4155405D2044C4B2681CC5B2202DBE
:10108000F2DB204890F825001F4981F825001D4813
:1010900090F827001B4991F8261000EB01201A490F
:1010A000C884084600884AF6AF71884212D11648B3
:1010B000C08C4FF6FA2188420CD100E00EE01248B5
:1010C00090F82500A04203D101200D49087001E0ED
:1010D0000D4800BF00200949087009E00B49054888
:1010E00000F097F8012803D10849024800F010F8F1
:1010F00070BD000000380140050105005D000020C2
:101100005C0000200C010020E40000201603140005
:1011100010B5002200230A0C012404FA02F3036232
:1011200010BD000000B589B0002206211848FFF765
:1011300082FB002207211648FFF77DFBC0200790A5
:1011400002208DF8200000208DF8220002208DF86A
:10115000210000208DF8230007A90D48FFF728FB88
:101160000C4800F023F84FF4165001900020029034
:101170000390049006900C20059001A9054800F00A
:101180008BF80121034800F031F809B000BD0000E0
:1011900000040048003801400146888CC0F3080074
:1011A0007047C1F3080202857047000010B504467D
:1011B0000C48844209D101218803FFF7EFFC00218C
:1011C0004FF48040FFF7EAFC0BE00748844208D167
:1011D00001214804FFF7C2FC00214FF40030FFF763
:1011E000BDFC10BD003801400044004021B1026840
:1011F00042F00102026003E0026822F00102026094
:1012000070470246D069084008B1012070470020AD
:10121000FCE730B502460B46002400210025C3F34D
:101220000725D9B2012000FA01F1012D02D1106881
:10123000014006E0022D02D15068014001E09068B3
:1012400001401C0C012000FA04F4D069044011B1E3
:101250000CB1012030BD0020FCE7F0B503460025AD
:101260000020184601F47F45CCB2B5F5407F01D18E
:10127000083003E0B5F5007F00D1001D2AB10668F3
:101280000127A7403E43066004E007680126A64008
:10129000B7430760F0BD00002DE9F04188B0044677
:1012A0000D460027B8460026206820F00100206087
:1012B000666826F44056A86806436660266841F2D0
:1012C0000C608643E9686868084329690843064357
:1012D0002660A66826F4407668690643A66001A8E1
:1012E000FFF79AFC1A48844202D1DDF81C8001E025
:1012F000DDF80C80206800F4004060B14FEA48003F
:101300002968B0FBF1F74FEA48002968B0FBF1F219
:1013100001FB120607E02868B8FBF0F72868B8FB65
:10132000F0F100FB11862868B6EB500F00D37F1C4C
:10133000206800F4004038B1C7F342064FF6F07160
:1013400007EA010040EA0607A78108B0BDE8F0817E
:101350000038014000BFFEE702E008C8121F08C1C4
:10136000002AFAD170477047002001E001C1121F26
:10137000002AFBD17047000000B50023224A234811
:10138000234908600846006800682249086008464A
:1013900000682149884201D1002000BD00F052FBC5
:1013A0001E4800681E490968884207D11B4800682A
:1013B000401C18B11A480068401C08B90120ECE72D
:1013C000114A05E012480260006800680344121DDB
:1013D000124800680C4908449042F3D8114800684C
:1013E000834203D10F480068401C08B90220D4E7AB
:1013F0000548006800F00050B0F1005F01D0032004
:10140000CBE70020C9E70000006400080056000890
:10141000700000208400002001118619780000204F
:10142000740000207C00002010B5FFF723F918207D
:10143000104908603420FFF7B1F800200E49086019
:101440000FE00D4909680D4A531403FB0120FFF713
:10145000ABF83420FFF7A2F807480068401C0649A3
:10146000086005480068034909688842E9D3FFF726
:10147000D7F810BD64000020680000200064000858
:10148000002000BF04E00021034A1154411CC8B2EF
:101490002028F8DB70470000A000002010B50446AB
:1014A00003E04FF47A7000F006F82000A4F1010187
:1014B0008CB2F6D110BD10B5044601218807FFF7A4
:1014C00057FD21464FF08040FFF761FD04E04FF0EB
:1014D0008040FFF759FD84B2012CF8DC00214FF069
:1014E0008040FFF745FD10BD00260027FFF766FB93
:1014F000FFF7E4F8FFF7F5F900214FF00060FFF780
:10150000E7FA45F25550FFF7E3F90620FFF7D4F963
:1015100040F63C70FFF7D6F9FFF7C6F9FFF7BCF9C4
:10152000FEF79CFE4FF480714FF09040FFF7B0F94A
:1015300040214FF09040FFF7ABF9FFF7F3FD012298
:10154000FD49FE48FFF789FEFEF76EFF00F0B6FA90
:10155000FFF796FF0020FA4908700122B72000F03B
:1015600039FB0120F749087061E220214FF09040DB
:10157000FFF78EF9022201210846FEF7CFFE012077
:10158000FEF73CFF0220FFF789FFFEF793FE0646B9
:10159000ED490968881900EBD0714910EA4A1160D9
:1015A000022201211046FEF7B9FE0120FEF726FFB8
:1015B0000220FFF773FFFEF77DFE0746E349096847
:1015C000C81900EBD0714910E04A116020214FF09A
:1015D0009040FFF75BF9DC48006840F2F541884233
:1015E0001FDADB48006847F23051884210DD4FF4C3
:1015F00080714FF09040FFF749F940214FF0904043
:10160000FFF744F90020CF490870D149086004E091
:10161000CF480068401CCE4908600020CD490860D2
:101620005AE0C948006840F28551884240DA0821F2
:101630004FF09040FFF722F990B9C2480078002897
:101640000ADD4FF480714FF09040FFF721F94021FF
:101650004FF09040FFF71CF90020BE49086023E0DE
:10166000BA48006850281CDDBA48006847F230517B
:10167000884205DAB7480068401CB649086013E0A4
:101680004FF480714FF09040FFF700F940214FF088
:101690009040FFF7FBF80020AA490870AD490860A8
:1016A00002E00020AB4908600020A949086013E06F
:1016B000A448007800280ADD4FF480714FF0904074
:1016C000FFF7E6F840214FF09040FFF7E1F80020E7
:1016D000A04908609E490860FFF7E6F84FF47A7069
:1016E000FFF7DCFE9C480078401C9B4908709B4833
:1016F000007801286FD1002008709948C078B02880
:1017000027D1FFF7BDFE00F09DF996480068000E56
:101710008B49087093480068000C48709148008815
:10172000000A88708F480078C8708F480068000EE3
:1017300008718D480068000C48718B480088000AC9
:10174000887189480078C8710822B12000F042FAF7
:1017500044E18348C078B2280ED1FFF791FEFFF72D
:101760000BFE82490870084600787549087001220E
:10177000B32000F02FFA31E17948C078B4281CD1A9
:10178000FFF77EFEFFF7F8FD7849087008460078FD
:101790006B4908707548007830B94FF4FA70FFF75C
:1017A0007DFE00F0D3F919E17048007864490870B3
:1017B0000122B52000F00EFA10E16948C078B8287F
:1017C0000AD1FFF75DFEFFF72FFE00225C49B9202A
:1017D00000F000FA02E105E16148C078BC284AD176
:1017E000FFF74EFE00F02EF95D4800790C283AD143
:1017F0005B48007A01065A48C07901EB004158481D
:10180000807901EB0020564949790844584908601D
:101810005348007B01065248C07A01EB0041504812
:10182000807A01EB00214E48407A08445149086013
:101830004B48007C01064A48C07B01EB0041484808
:10184000807B01EB00214648407B08444649086004
:1018500049484A49086000F087FA00223849BD200B
:1018600000F0B8F9BAE00320354908700122BD2024
:1018700000F0B0F9B2E03A48C078BA285AD1002452
:101880004FF00008FFF7FCFD35480079042852DDD1
:101890003348007A01063248C07901EB00413048F4
:1018A000807901EB00202E49497900EB010800BF47
:1018B00026E0072000EB84012948401D405C01061A
:1018C000062000EB84022648401D805C01EB0041AD
:1018D000052000EB84022248401D805C01EB0021C2
:1018E000042000EB84021E48401D805C084424490B
:1018F000086008460068234941F82400601CC4B20F
:1019000017490879C11700EB91718910491EA1424E
:10191000CFDC13480579E81705EB90708010401E66
:10192000C2B21849404600F0C5F91049087008468F
:10193000007829E037E02EE005010500003801407D
:10194000A0000020310000204000002044000020C2
:10195000380000203C000020550000205C000020E2
:10196000E40000202C000020800000205400002013
:10197000780000207C000020030117208400002054
:1019800058000020C0000020294908700122BB2017
:1019900000F020F906E00320254908700122BB2051
:1019A00000F018F91AE02348C078B62809D1FFF7EB
:1019B00067FD00201E4908700122B72000F00AF9D7
:1019C0000CE01C48C078BE2808D1FFF759FD002064
:1019D000174908700122BF2000F0FCF800201649CA
:1019E000087024E0FFF7C8FC144908701448007818
:1019F0000A2810DD0846007830B94FF4FA70FFF776
:101A00004DFD00F0A3F812E0FFF73AFD0B48007817
:101A1000074908700BE0FFF733FD094800780449D7
:101A200008700548007848700248C07888709CE5C6
:101A3000A0000020E40000205C00002054000020F2
:101A400055000020154816490860084600680068DF
:101A5000144908601148001D1149086008460068D3
:101A60000068114908600D4808300D4908600846B3
:101A7000006800680D49086008480C300849086093
:101A80000846006800680A4908600A480449086076
:101A9000084600680068084908607047009C000814
:101AA0007000002074000020780000207C000020DE
:101AB00080000020005600088400002010B5FFF7C9
:101AC000C1FF19480068401C68BB18480068401CEA
:101AD00048BB17480068401C28BB16480068401CDB
:101AE00008BB154815490860084600680068144995
:101AF000086008460068401CA8B9FEF7BBFD34200A
:101B0000FEF74CFD0C48FEF74FFD3420FEF746FD76
:101B10000C490948FEF78EFD0B4908703420FEF78A
:101B20003DFDFEF77DFD10BD780000207400002013
:101B30007C0000208000002000560008700000207B
:101B400084000020011186196000002010B50D48A6
:101B5000006800F00050B0F1005F11D10948001D8D
:101B60000068094908600846006808490860054996
:101B7000086880F3088800BF62B6044800688047A0
:101B800010BD0000006400088C00002088000020C8
:101B90002DE9F04106460F46002412E00B4D00E00F
:101BA0006D1E40210A48FFF72CFB08B9002DF7DC19
:101BB000002D04DD315D0648FFF7F3FA00E002E096
:101BC000641CBC42EADB00BFBDE8F08100127A0071
:101BD000003801402DE9F04780460E461746DFF8F1
:101BE000CC90002500244AF6AF704946088008468C
:101BF000057800782E4908704846008805EB2020BB
:101C0000C5B248460088001248704846807828448B
:101C1000C5B2484680788870484680F80380C0780E
:101C20002844C5B24846C078C87048460771007954
:101C30002844C5B24846C078087100BF18E0BC42CD
:101C400007DB00211948401D0155601D184A115439
:101C500007E0315D1548401D0155315D601D144A96
:101C600011541248401D005D2844C5B2601CC4B226
:101C7000202CE4DB0D4880F8255090F825000C4915
:101C800081F825004FF6FA200849C8840846C08C20
:101C90000012074981F826000448007881F82700DF
:101CA00028214846FFF774FFBDE8F087E4000020D4
:101CB000340100202DE9F04706460F4615464FF047
:101CC0000008C1460024A246FEF7D4FC2148304457
:101CD0002149086000BF12E057F8248041461E48A1
:101CE0000068FEF7A7FC1D4908701B480068001D2E
:101CF000194908603420FEF751FC601CC4B2AC42A4
:101D0000EADBFEF78DFC13483044154908600024D7
:101D100011E057F8248012480068D0F80090C845B8
:101D200002D04FF0010A08E00D480068001D0C4980
:101D30000860601CC4B2AC42EBDB00BFFFF782FE60
:101D400006EB85000749086000F00EF85046BDE834
:101D5000F0870000006400086C0000206000002094
:101D6000700000207400002010B5FEF783FC3420C2
:101D7000FEF714FC2B48FEF717FC3420FEF70EFC90
:101D8000294801682748FEF755FC28490870342087
:101D9000FEF704FC264801682248001DFEF74AFCB5
:101DA000224908703420FEF7F9FB224801681D48DB
:101DB0000830FEF73FFC1D4908703420FEF7EEFBAB
:101DC0001D48016817480C30FEF734FC17490870AD
:101DD0003420FEF7E3FB19481949086008460068FB
:101DE000006818490860084600681749884215D1FC
:101DF000FEF740FC3420FEF7D1FB1048FEF7D4FB81
:101E00003420FEF7CBFB11490C48FEF713FC0749C1
:101E100008703420FEF7C2FBFEF702FCFEF700FC60
:101E200010BD0000009C000874000020600000202D
:101E3000780000207C000020800000200056000870
:101E40007000002084000020011186190301172072
:101E5000701E0008000000209000000058130008C9
:101E6000001F000890000020D00400006813000844
:101E700000A24A0400000000000000000102030468
:101E8000060708090000000000000000010203042A
:101E90000607080900000000010203040102030410
:101EA0000000000000000000000000000000000032
:101EB0000000000000000000000000000000000022
:101EC0000000000000000000000000000000000012
:101ED0000000000000000000000000000000000002
:101EE00000000000000000000000000000000000F2
:101EF00000000000000000000000000000000000E2
:04000005080001C32B
:00000001FF
