:020000040800F2
:1064000018050020D96500086D6C0008DD6B0008D8
:10641000696C000821680008497700080000000046
:10642000000000000000000000000000A171000852
:106430007968000800000000C96E00086572000855
:10644000F3650008F3650008F3650008F3650008CC
:10645000F3650008F3650008BD680008E5680008FA
:10646000F3650008F3650008F3650008F3650008AC
:10647000F3650008F3650008F3650008F36500089C
:10648000F3650008F365000800000000F3650008EC
:10649000F3650008F3650008F3650008F36500087C
:1064A000F3650008F3650008F365000879730008D8
:1064B000F365000800000000F3650008000000001C
:1064C000F365000800000000F3650008F3650008AC
:1064D000F3650008F3650008F3650008000000009C
:1064E0000000000000000000F3650008F3650008EC
:1064F000F3650008F3650008F3650008F36500081C
:10650000F36500080000000000000000F3650008CB
:10651000000000000000000000000000000000007B
:10652000000000000000000000000000000000006B
:10653000000000000000000000000000000000005B
:10654000000000000000000000000000000000004B
:106550000000000000000000F3650008F36500087B
:10656000F3650008F365000800000000000000006B
:10657000000000000000000000000000000000001B
:10658000000000000000000000000000000000000B
:1065900000000000000000000000000000000000FB
:1065A00000000000000000000000000000000000EB
:1065B00000000000000000000000000000000000DB
:1065C0000000DFF810D000F019F800000048004784
:1065D000D577000818050020064880470648004780
:1065E000FEE7FEE7FEE7FEE7FEE7FEE7FEE7FEE783
:1065F000FEE7FEE769720008C3650008064C074D18
:1066000006E0E06840F0010394E807009847103482
:10661000AC42F6D3FFF7D9FFFC7C00081C7D0008D4
:106620000D48006840F008000B49086000BF0A48A8
:10663000006800F008000028F9D10748006840F021
:1066400004000549086000BF0348006800F004002A
:106650000028F9D1704700000824014010B500203F
:106660000A49087348734FF460200860002088606E
:1066700001200871084600F023F8012000F008F816
:10668000FFF7CEFF052001F07FF810BD9800002035
:1066900030B10749096841F00101054A116005E080
:1066A0000349096821F00101014A116070470000A7
:1066B000082401400148006880B270474C24014022
:1066C00010B5014600200022124B186820F480709B
:1066D0000B7B40EA03200F4B18601B1D18680E4B04
:1066E00018400C688B6823434C7B43EA44031843EF
:1066F000084B1B1D1860074B2833186820F47000E6
:106700000B795B1EDBB21A4340EA0250014B28337F
:10671000186010BD04240140FDF7F1FF70B5034679
:106720000C4600200021092B13DD334D2868A3F10E
:106730000A0505EB4506072505FA06F18843A3F18E
:106740000A0505EB450502FA05F108432A4D2860C4
:1067500010E0294D2D1D286803EB4306072505FA97
:1067600006F1884303EB430502FA05F10843224D85
:106770002D1D2860072C13DA1F4D28352868651E4B
:1067800005EB85061F2505FA06F18843651E05EB16
:10679000850503FA05F10843174D283528602AE0DE
:1067A0000D2C13DA144D24352868E51F05EB8506FA
:1067B0001F2505FA06F18843E51F05EB850503FA59
:1067C00005F108430C4D2435286014E00A4D2035AE
:1067D0002868A4F10D0505EB85061F2505FA06F1CD
:1067E0008843A4F10D0505EB850503FA05F108437F
:1067F000014D2035286070BD0C24014030B107499F
:10680000096841F4A001054A116005E003490968DF
:1068100021F4A001014A11607047000008240140E2
:1068200000BFFEE738B50446022C11D14FF4C0601A
:1068300000F00AFB06208DF8000000208DF8010012
:106840008DF802008DF80300684600F097FA12E018
:10685000012C10D14FF4C06000F0F6FA07208DF83B
:10686000000000208DF801008DF802008DF8030073
:10687000684600F083FA38BD704700000EB501216C
:10688000084600F04DFB012001900A4800680A49C3
:10689000B0FBF1F0401E80B2ADF800000020ADF872
:1068A00008001020ADF802006946800600F018FDCF
:1068B0000EBD00000000002040420F0010B5022075
:1068C000FFF7B0FF082000F043F828B1082000F0DF
:1068D00039F8012002490870022000F0C9FA10BD01
:1068E0002C00002010B50120FFF79CFF00F080F97C
:1068F000802000F02DF8C0B10F48007848B100208A
:106900000D490870C82000F03FFF802000F01AF801
:106910000BE0012009490870002009490860C820DF
:1069200000F032FF802000F00DF800F061F9012046
:1069300000F09EFA10BD0000440000202C00002052
:106940003000002001490860704700001404014035
:10695000014606480068084030B104481438006811
:10696000084008B1012070470020FCE714040140F2
:10697000002123498279002A3AD00A461268036826
:106980009A430B461A600A1D126803689A430B1D4E
:106990001A60027911440A6803681A430A60184AA7
:1069A0000832126803689A43154B08331A601A1D9F
:1069B000126803689A43124B0C331A604279102A0A
:1069C0000ED11A1F126803681A430D4B08331A6060
:1069D0001A1D126803681A43094B0C331A600DE044
:1069E0000749427911440A6803681A430A6005E0BE
:1069F000027911440A6803689A430A6070470000EC
:106A0000000401401CB50620009003208DF804000E
:106A100069464FF0904000F06FF801200090002090
:106A20008DF804008DF8070069464FF0904000F0A3
:106A300063F80820009000208DF8040001208DF8F4
:106A4000070069464FF0904000F056F88020009013
:106A500000208DF8040001208DF8070069464FF0F2
:106A6000904000F049F84FF48070009002208DF8BB
:106A7000050001208DF8040000208DF8060002209A
:106A80008DF8070069464FF0904000F035F840203F
:106A9000009002208DF8050001208DF804000020F0
:106AA0008DF8060002208DF8070069464FF09040EF
:106AB00000F022F82020009002208DF8050001202F
:106AC0008DF8040000208DF8060002208DF80700E4
:106AD00069464FF0904000F00FF8C0200090002071
:106AE0008DF8040002208DF807006946014800F087
:106AF00003F81CBD0004004830B50A46002100BF61
:106B00003AE001248C4013682340A3B31379012B8E
:106B100002D01379022B16D183684D000324AC40B8
:106B2000A343836053794C00A3408468234383606C
:106B3000436801248C40A3434360436894798C40AC
:106B4000A4B223434360C3684D000324AC40A34375
:106B5000C360D3794C00A340C4682343C360036877
:106B60004D000324AC40A343036013794C00A340C1
:106B7000046823430360491C1029C2D330BDF0B51B
:106B8000002300244D07ED0E02FA05F3CE1000F1AC
:106B9000200555F826504E07F70E0F26BE40B54388
:106BA000CF1000F1200646F82750CE1000F1200546
:106BB00055F8265045EA0304CE1000F1200545F8AB
:106BC0002640F0BD02461069084008B10120704718
:106BD0000020FCE7816270478161704700BFFEE7DB
:106BE0004CF6CC400149086070470000003000407E
:106BF0004AF6AA20014908607047000000300040B2
:106C00000149486070470000003000400149886039
:106C100070470000003000400149086070470000E4
:106C20000030004010B54FF00060006800F00050E8
:106C3000B0F1005F12D14FF0006040680849086071
:106C400008460068074908604FF00061086880F353
:106C5000088800BF62B603480068804710BD000086
:106C6000940000209000002000BFFEE770470EB5A2
:106C70000C208DF8080000208DF809008DF80A001E
:106C800001208DF80B0002A800F078F84FF4C060E6
:106C900000F0DAF806208DF8080000208DF80900D1
:106CA0008DF80A0001208DF80B0002A800F066F8AC
:106CB0000321002000F076FA0820009000208DF8D3
:106CC00004000C208DF8050001208DF806006846B0
:106CD000FFF74EFE0721002000F064FA80200090AC
:106CE00000208DF804000C208DF8050001208DF89F
:106CF00006006846FFF73CFE4FF4C06000F0A4F8C1
:106D000007208DF8080000208DF809008DF80A0092
:106D100001208DF80B0002A800F030F84FF400308D
:106D2000FFF710FE4FF40030009000208DF80400B3
:106D300008208DF8050001208DF806006846FFF751
:106D400017FE02208DF8080000208DF809008DF84C
:106D50000A0001208DF80B0002A800F00FF81B209C
:106D60008DF8080000208DF809008DF80A00012038
:106D70008DF80B0002A800F001F80EBD70B50021DF
:106D800000220023C478002C4DD02C4C246804F43D
:106D9000E064B4F5E06F02D100BF042326E0274C85
:106DA000246804F4E064B4F5C06F02D10122032327
:106DB0001CE0224C246804F4E064B4F5A06F02D116
:106DC0000222022312E01D4C246804F4E064B4F5AE
:106DD000806F02D10322012308E0184C246804F4D8
:106DE000E064B4F5407F01D1042200234478C2F16D
:106DF000040504FA05F18478C3F104060F25354132
:106E00002C40214309010E4C0678A155047804F06A
:106E10001F050124AC4005786D11AD0005F1E0259A
:106E2000C5F8004109E0047804F01F040125A540DD
:106E3000044C0678761144F8265070BD0CED00E045
:106E400000E400E080E100E002490143024A1160F1
:106E5000704700000000FA050CED00E0024A0A400D
:106E60000243024B1A60704780FFFF1F08ED00E0ED
:106E700038B50446022C12D14FF4C060FFF7E4FF8E
:106E800006208DF8000000208DF801008DF802002A
:106E900001208DF803006846FFF770FF13E0012C16
:106EA00011D14FF4C060FFF7CFFF07208DF800002D
:106EB00000208DF801008DF8020001208DF80300FC
:106EC0006846FFF75BFF38BD704700000B49496813
:106ED00021F44041094A51601146496882B2114388
:106EE000064A51601146096B21F480711163114605
:106EF000096B41EA10411163704700000010024025
:106F000029B1064A52690243044B5A6104E0034A1C
:106F100052698243014B5A617047000000100240E1
:106F200029B1064AD2690243044BDA6104E0034AFC
:106F3000D2698243014BDA617047000000100240C1
:106F400029B1064A12690243044B1A6104E0034A5C
:106F500012698243014B1A61704700000010024021
:106F600029B1064A92690243044B9A6104E0034A3C
:106F700092698243014B9A61704700000010024001
:106F800029B1064AD2680243044BDA6004E0034A9E
:106F9000D2688243014BDA60704700000010024063
:106FA00010B51548FFF792FF01214FF4C020FFF7FD
:106FB000A7FF01214802FFF7D3FF012144F201009E
:106FC000FFF7CEFF01210807FFF7AAFF032000F01B
:106FD000D9F801214FF4C020FFF792FF01214804A6
:106FE000FFF79EFF01218803FFF7BAFF0121080385
:106FF000FFF7B6FF10BD000000800001F0B50021D2
:1070000000220024002500260023584F7F6807F047
:107010000C0121B1042905D008292BD105E0544FDA
:1070200007602AE0524F076027E0504F7F6807F45F
:1070300070124E4F7F6807F00064E70E3C0104EBCE
:1070400092420F2A01D3521C00E0921C474F7F68E6
:1070500007F480351DB9474F5743076009E0434F98
:10706000FF6A07F00F077E1C414FB7FBF6F7574347
:10707000076002E03E4F076000BF00BF3B4F7F68E4
:1070800007F0F00109093C4F7B5C0768DF4047606F
:10709000364F7F6807F4E061090A384F7B5C476828
:1070A000DF408760314F7F6807F46051C90A334F72
:1070B0007B5C4768DF40C7602C4F3F6B07F48077ED
:1070C000B7F5807F02D02E4F07611FE0274F7F6802
:1070D000C7F3813131B1012908D002290AD003292F
:1070E00013D10EE0C7687F0807610EE0C768BF08CC
:1070F00007610AE04FF0060CC768B7FBFCF70761B1
:1071000003E0C768FF08076100BF00BF174F3F6B70
:1071100007F04007402F03D048F21207476102E012
:107120004FF400474761114F3F6B07F0030717B952
:10713000C768876119E00D4F3F6B07F00307012F08
:1071400002D10768876110E0084F3F6B07F0030723
:10715000022F02D1BF03876107E0044F3F6B07F0A6
:107160000307032F01D1024F8761F0BD00100240D9
:1071700000127A0000093D001400002024000020C5
:10718000809FD5000549096B21F00301034A116373
:107190001146096B01431163704700000010024063
:1071A0007047000030B500228B071C0F0F2303FA35
:1071B00004F20B4B8C1053F824309343084C8D1081
:1071C00044F8253023468C1053F824308C07240FC4
:1071D00000FA04F42343024C8D1044F8253030BDEE
:1071E0000800014010B500F001F810BD1A484068D1
:1071F0001949486008464068486008464068486049
:1072000008464068154908401349486008464068E8
:1072100013490843104948600846006840F08070F0
:10722000086000BF0C48006800F000700028F9D02A
:107230000948406820F00300074948600846406854
:1072400040F00200486000BF0348406800F00C00B6
:107250000828F9D17047000000100240FFFFC2F774
:10726000000004087047000010B51948006840F09D
:10727000010017490860084640681649084014494B
:1072800048600846006814490840114908600846EB
:10729000006820F480200860084640680F490840D4
:1072A0000B4948600846C06A20F00F00C8620846D3
:1072B000006B40F243118843054908630846406B60
:1072C00020F00100486300208860FFF78BFF10BDAD
:1072D000001002400C003F08FFFFF6FEFFFFC0F762
:1072E00000220288154B984205D0B0F1804F02D0A1
:1072F000134B984204D14FF68F731A404B881A43B0
:10730000104B984204D04FF6FF431A400B891A43A2
:1073100002804B68C3620B880385084B984208D0F3
:10732000094B984205D0094B984202D0084B98422D
:1073300001D18B7A0386012383827047002C0140A0
:1073400000040040001000400040014000440140A3
:107350000048014021B1028842F00102028004E0AD
:1073600002884FF6FE731A40028070470146486A51
:1073700070474162704700002DE9F041002500246C
:107380000821594800F03FF930B10821564800F073
:10739000B9F8554800F0FAF85449534800F033F969
:1073A00000287DD0504800F0F1F8C6B2504800786F
:1073B000282823D24F48007800BB4F484C49097811
:1073C00046544B480078401C4949087008460078EC
:1073D000012807D148480578AF2D01D0002008705A
:1073E00000250BE042480078022807D14248447843
:1073F000AF2C02D000203E49087000243C480078A1
:1074000028286ED13C4840783B49097800EB0120A0
:107410003A49088008460478008804EB2020C4B26A
:10742000354880788870084680782044C4B2324855
:10743000C078C8700846C0782044C4B22E4800798D
:107440000871084600792044C4B200250AE0681D8E
:107450002949095C2948401D4155405D2044C4B27A
:10746000681CC5B2202DF2DB234890F82500234983
:1074700081F82500204890F827001F4991F8261030
:1074800000EB01201D49C884084600884AF6AF7108
:10749000884218D11948C08C4FF6FA21884200E082
:1074A00015E010D1154890F82500A04203D1012025
:1074B0001049087007E0114F3846447128213846BA
:1074C00000F0B0FB00BF00200949087009E00C493A
:1074D000054800F098F8012803D10949024800F056
:1074E00011F8BDE8F08100000038014005010500F9
:1074F0006900002068000020F0000020C800002083
:107500001603140010B5002200230A0C012404FA0B
:1075100002F3036210BD000000B589B0002206210D
:107520001848FFF72CFB002207211648FFF727FB1E
:10753000C020079002208DF8200000208DF8220046
:1075400002208DF8210000208DF8230007A90D48A6
:10755000FFF7D2FA0C4800F023F84FF416500190D0
:10756000002002900390049006900C20059001A941
:10757000054800F08BF80121034800F031F809B00C
:1075800000BD000000040048003801400146888C1E
:10759000C0F308007047C1F308020285704700007D
:1075A00010B504460C48844209D101218803FFF735
:1075B000E7FC00214FF48040FFF7E2FC0BE00748B6
:1075C000844208D101214804FFF7BAFC00214FF49E
:1075D0000030FFF7B5FC10BD00380140004400400A
:1075E00021B1026842F00102026003E0026822F069
:1075F0000102026070470246D069084008B10120CC
:1076000070470020FCE730B502460B4600240021FD
:107610000025C3F30725D9B2012000FA01F1012D9D
:1076200002D11068014006E0022D02D150680140ED
:1076300001E0906801401C0C012000FA04F4D069BC
:10764000044011B10CB1012030BD0020FCE7F0B5C1
:10765000034600250020184601F47F45CCB2B5F55D
:10766000407F01D1083003E0B5F5007F00D1001D57
:107670002AB106680127A7403E43066004E0076878
:107680000126A640B7430760F0BD00002DE9F04198
:1076900088B004460D460027B8460026206820F032
:1076A00001002060666826F44056A86806436660BC
:1076B000266841F20C608643E968686808432969D6
:1076C000084306432660A66826F4407668690643A8
:1076D000A66001A8FFF792FC1A48844202D1DDF8A7
:1076E0001C8001E0DDF80C80206800F4004060B1EF
:1076F0004FEA48002968B0FBF1F74FEA48002968D3
:10770000B0FBF1F201FB120607E02868B8FBF0F7C6
:107710002868B8FBF0F100FB11862868B6EB500F23
:1077200000D37F1C206800F4004038B1C7F3420644
:107730004FF6F07107EA010040EA0607A78108B09A
:10774000BDE8F0810038014000BFFEE702E008C854
:10775000121F08C1002AFAD170477047002001E0CB
:1077600001C1121F002AFBD170470000002000BF9A
:1077700004E00021034A1154411CC8B22028F8DB60
:1077800070470000A800002010B5044603E04FF445
:107790007A7000F006F82000A4F101018CB2F6D155
:1077A00010BD10B5044601218807FFF7D3FD21461F
:1077B0004FF08040FFF7DDFD04E04FF08040FFF721
:1077C000D5FD84B2012CF8DC00214FF08040FFF79A
:1077D000C1FD10BDFD48FE490860FFF7E1FBFFF762
:1077E00011F9FFF744FA4FF4C8414FF00060FFF77A
:1077F00035FB4FF480714FF09040FFF7EDF94021D9
:107800004FF09040FFF7E8F945F25550FFF704FAC2
:107810000620FFF7F5F94FF44360FFF7F7F9FFF79C
:10782000E7F9FFF7DDF9FEF719FFFFF775FE012213
:10783000E849E948FFF70BFFFFF720F8FFF796FF4D
:107840000020E64908700122B52000F00FFAE7E1B8
:1078500020214FF09040FFF7BFF902220121084696
:10786000FEF75CFF0120FEF7C9FF0220FFF78CFF47
:10787000FEF720FFDA490880DA490968D84A1288F9
:10788000881800EBD0714910D64A116002220121FC
:107890001046FEF743FF0120FEF7B0FF0220FFF77E
:1078A00073FFFEF707FFD0490880D0490968CE4A28
:1078B0001288881800EBD0714910CC4A1160202141
:1078C0004FF09040FFF786F908214FF09040FFF706
:1078D00079F9C7490870FFF78BF94FF47A70FFF711
:1078E00053FFC3480078002864D1C2480068C249E9
:1078F0000968884205D2BF480068401CBD4908603D
:107900000AE0BC480068BC490968884204D3BB4807
:107910000068401CB9490860B8480068B84909685F
:1079200088426CD9FFF722FF0022AC49A22000F068
:107930009DF94FF480714FF09040FFF74BF94021D3
:107940004FF09040FFF746F941F28830FFF71CFFF7
:107950000022A249A42000F089F94FF480714FF071
:107960009040FFF739F940214FF09040FFF734F98C
:107970004FF4FA60FFF708FF00229849A52000F0B5
:1079800075F980214FF09040FFF724F940F6B830A8
:10799000FFF7FAFE00229149A62000F067F9802146
:1079A0004FF09040FFF718F9002092490860934982
:1079B000086024E0FFF7DAFE90480068000E87496F
:1079C00008708E480068000C48708C480088000AD7
:1079D00088708A480078C87086480068000E087170
:1079E00084480068000C487182480088000A887149
:1079F00080480078C8710822A32000F037F9814838
:107A0000007801287ED18048C078B02832D1FFF7B5
:107A1000ADFE7E487E4908600846006800686C49F3
:107A200008607C480068000E6C490870794800685E
:107A3000000C487077480088000A88707548007804
:107A4000C87063480068000E087161480068000C47
:107A500048715F480088000A88715D480078C871E5
:107A60004FF4FA70FFF790FE08225C49B12000F055
:107A7000FDF883E06448C078BE2865D1FFF776FE44
:107A80006148007A01066048C07901EB00415E4818
:107A9000807901EB00205C49497908445E4908601F
:107AA0000846006818B91E205349086003E05A4888
:107AB0000068514908605448007B01065248C07A6A
:107AC00001EB00415048807A01EB00214E48407A9A
:107AD0000844514908600846006818B91E20484902
:107AE000086003E04C4800684549086000204349AD
:107AF000086043480068000E384908704048006834
:107B0000000C00E03EE048703D480088000A8870A4
:107B10003B480078C87038480068000E0871364845
:107B20000068000C487134480088000A88713248A7
:107B30000078C8714FF4FA70FFF726FE0822274933
:107B4000BF2000F093F819E02F48C078B62806D17E
:107B50004FF4FA70FFF718FEFFF764F80EE02A48BA
:107B6000C078B4280AD14FF4FA70FFF70DFE002058
:107B70001A4908700122B52000F078F80020214948
:107B800008704DE0FFF7F2FD1C480068000E134935
:107B900008701A480068000C487018480088000AED
:107BA000887016480078C87012480068000E087186
:107BB00010480068000C48710E480088000A88715F
:107BC0000C480078C8710822A12027E004010001B8
:107BD0008C0000200501050000380140A8000020AD
:107BE0004600002038000020480000203C00002013
:107BF0002D0000205C0000205000002058000020D4
:107C00005400002068000020C80000200C9C0008E0
:107C100064000020600000204C00002000F026F8E6
:107C200016E600002DE9F04106460F46002413E059
:107C30000C4D00E06D1E40210B48FFF7DCFC08B93D
:107C4000002DF7DC00BF002D04DD315D0648FFF795
:107C5000A2FC00E002E0641CBC42E9DB00BFBDE81E
:107C6000F081000000127A00003801402DE9F04751
:107C7000074688461646DFF88090002500244AF61D
:107C8000AF704946088008460578008805EB20203B
:107C9000C5B2084680782844C5B20846C770C07887
:107CA0002844C5B20846067100792844C5B200BF11
:107CB00012E0B44204DB00210F48401D015504E0EE
:107CC00018F804100C48401D01550B48401D005D7C
:107CD0002844C5B2601CC4B2202CEADB064880F8F8
:107CE00025504FF6FA200449C88428214846FFF75A
:107CF00099FFBDE8F0870000C80000201C7D000847
:107D000000000020980000004C770008B47D0008B7
:107D100098000020800400005C77000800A24A045C
:107D2000000000000000000001020304060708092B
:107D3000000000000000000001020304060708091B
:107D40000000000001020304000000000000000029
:107D50000000000000000000000000000000000023
:107D60000000000000000000000000001E000000F5
:107D70001E000000000000000000000001020304DB
:107D800000000000000000000000000000000000F3
:107D900000000000000000000000000000000000E3
:107DA00000000000000000000000000000000000D3
:047DB00000000000CF
:04000005080065C3C7
:00000001FF
