:020000040800F2
:1064000020050020D9650008396D0008A96C000836
:10641000356D000821680008BD7700080000000005
:1064200000000000000000000000000015720008DD
:1064300025680008000000003D6F0008D9720008C0
:10644000F3650008F3650008F3650008F3650008CC
:10645000F3650008F36500086968000889680008AA
:10646000F3650008F3650008F3650008F3650008AC
:10647000F3650008F3650008F3650008F36500089C
:10648000F3650008F365000800000000F3650008EC
:10649000F3650008F3650008F3650008F36500087C
:1064A000F3650008F3650008F3650008ED73000864
:1064B000F365000800000000F3650008000000001C
:1064C000F365000800000000F3650008F3650008AC
:1064D000F3650008F3650008F3650008000000009C
:1064E0000000000000000000F3650008F3650008EC
:1064F000F3650008F3650008F3650008F36500081C
:10650000F36500080000000000000000F3650008CB
:10651000000000000000000000000000000000007B
:10652000000000000000000000000000000000006B
:10653000000000000000000000000000000000005B
:10654000000000000000000000000000000000004B
:106550000000000000000000F3650008F36500087B
:10656000F3650008F365000800000000000000006B
:10657000000000000000000000000000000000001B
:10658000000000000000000000000000000000000B
:1065900000000000000000000000000000000000FB
:1065A00000000000000000000000000000000000EB
:1065B00000000000000000000000000000000000DB
:1065C0000000DFF810D000F019F800000048004784
:1065D0004978000820050020064880470648004703
:1065E000FEE7FEE7FEE7FEE7FEE7FEE7FEE7FEE783
:1065F000FEE7FEE7DD720008C3650008064C074DA4
:1066000006E0E06840F0010394E807009847103482
:10661000AC42F6D3FFF7D9FF0080000820800008C5
:106620000D48006840F008000B49086000BF0A48A8
:10663000006800F008000028F9D10748006840F021
:1066400004000549086000BF0348006800F004002A
:106650000028F9D1704700000824014010B500203F
:106660000A49087348734FF460200860002088606E
:1066700001200871084600F023F8012000F008F816
:10668000FFF7CEFF052001F0B9F810BD0C01002086
:1066900030B10749096841F00101054A116005E080
:1066A0000349096821F00101014A116070470000A7
:1066B000082401400148006880B270474C24014022
:1066C00010B5014600200022124B186820F480709B
:1066D0000B7B40EA03200F4B18601B1D18680E4B04
:1066E00018400C688B6823434C7B43EA44031843EF
:1066F000084B1B1D1860074B2833186820F47000E6
:106700000B795B1EDBB21A4340EA0250014B28337F
:10671000186010BD04240140FDF7F1FF70B5034679
:106720000C4600200021092B13DD334D2868A3F10E
:106730000A0505EB4506072505FA06F18843A3F18E
:106740000A0505EB450502FA05F108432A4D2860C4
:1067500010E0294D2D1D286803EB4306072505FA97
:1067600006F1884303EB430502FA05F10843224D85
:106770002D1D2860072C13DA1F4D28352868651E4B
:1067800005EB85061F2505FA06F18843651E05EB16
:10679000850503FA05F10843174D283528602AE0DE
:1067A0000D2C13DA144D24352868E51F05EB8506FA
:1067B0001F2505FA06F18843E51F05EB850503FA59
:1067C00005F108430C4D2435286014E00A4D2035AE
:1067D0002868A4F10D0505EB85061F2505FA06F1CD
:1067E0008843A4F10D0505EB850503FA05F108437F
:1067F000014D2035286070BD0C24014030B107499F
:10680000096841F4A001054A116005E003490968DF
:1068100021F4A001014A11607047000008240140E2
:1068200000BFFEE7704700000EB50121084600F0EA
:10683000B1FB012001900A4800680A49B0FBF1F061
:10684000401E80B2ADF800000020ADF80800102016
:10685000ADF802006946800600F07CFD0EBD000028
:106860000000002040420F0010B500F027FA082079
:1068700000F03AF828B1082000F030F80120014972
:10688000087010BD2C00002010B500F017FA802011
:1068900000F02AF8C0B10E48007848B100200C4939
:1068A0000870C82000F0AAFF802000F017F80BE065
:1068B000012008490870002007490860C82000F03E
:1068C0009DFF802000F00AF800F0F8F910BD0000EC
:1068D000480000202C000020300000200149086002
:1068E0007047000014040140014606480068084053
:1068F00030B1044814380068084008B101207047DE
:106900000020FCE714040140002123498279002A79
:106910003AD00A46126803689A430B461A600A1D69
:10692000126803689A430B1D1A60027911440A68C1
:1069300003681A430A60184A0832126803689A43C7
:10694000154B08331A601A1D126803689A43124BDC
:106950000C331A604279102A0ED11A1F126803688C
:106960001A430D4B08331A601A1D126803681A4344
:10697000094B0C331A600DE00749427911440A684B
:1069800003681A430A6005E0027911440A68036843
:106990009A430A6070470000000401400149C86042
:1069A000704700000020024030B504464FF47020CC
:1069B00000F072F80546B5B90C48006940F00200D5
:1069C0000A49086108464461006940F040000861D6
:1069D0004FF4702000F060F805460448006920F08C
:1069E000020002490861284630BD00000020024034
:1069F00000200A49C96801F0010109B101200CE039
:106A00000649C96801F0100109B1022005E00349F7
:106A1000C96801F0040101B1032070470020024061
:106A20000348006940F08000014908617047000098
:106A30000020024070B504460D464FF4702000F06F
:106A40002BF806468EB90A48006940F00100084953
:106A5000086125604FF4702000F01EF806460448D7
:106A6000006920F0010002490861304670BD000055
:106A7000002002400548006900F0800020B1044871
:106A80000249486003484860704700000020024007
:106A900023016745AB89EFCD00B50346012200BF56
:106AA000FFF7A6FF02465B1E012A01D1002BF7D19A
:106AB000012A00D10422104600BD00001CB50620AA
:106AC000009003208DF8040069464FF0904000F0DC
:106AD00079F80120009000208DF804008DF807005F
:106AE00069464FF0904000F06DF8082000900020BB
:106AF0008DF8040001208DF8070069464FF09040A2
:106B000000F060F88020009002208DF80500012040
:106B10008DF804008DF806008DF8070069464FF0E7
:106B2000904000F04FF880214FF0904000F0BAF80C
:106B30004FF48070009002208DF8050001208DF840
:106B4000040000208DF8060002208DF80700694639
:106B50004FF0904000F036F84020009002208DF871
:106B6000050001208DF8040000208DF806000220A9
:106B70008DF8070069464FF0904000F023F8202080
:106B8000009002208DF8050001208DF804000020FF
:106B90008DF8060002208DF8070069464FF09040FE
:106BA00000F010F8C020009000208DF804000220B2
:106BB0008DF807006946024800F004F81CBD00008B
:106BC0000004004830B50A46002100BF3AE0012425
:106BD0008C4013682340A3B31379012B02D013799F
:106BE000022B16D183684D000324AC40A34383607D
:106BF00053794C00A3408468234383604368012495
:106C00008C40A3434360436894798C40A4B22343EF
:106C10004360C3684D000324AC40A343C360D379F1
:106C20004C00A340C4682343C36003684D000324A1
:106C3000AC40A343036013794C00A3400468234392
:106C40000360491C1029C2D330BDF0B500230024D5
:106C50004D07ED0E02FA05F3CE1000F1200555F8B0
:106C600026504E07F70E0F26BE40B543CF1000F159
:106C7000200646F82750CE1000F1200555F8265082
:106C800045EA0304CE1000F1200545F82640F0BD8A
:106C900002461069084008B1012070470020FCE757
:106CA000816270478161704700BFFEE74CF6CC40BF
:106CB0000149086070470000003000404AF6AA20F1
:106CC00001490860704700000030004001494860F9
:106CD00070470000003000400149886070470000A4
:106CE000003000400149086070470000003000405B
:106CF00010B54FF00060006800F00050B0F1005F88
:106D000012D14FF0006040680849086008460068EA
:106D1000074908604FF00061086880F3088800BFE9
:106D200062B603480068804710BD0000980000204C
:106D30009400002000BFFEE770470EB50C208DF8D0
:106D4000080000208DF809008DF80A0001208DF858
:106D50000B0002A800F078F84FF4C06000F0DAF8F9
:106D600006208DF8080000208DF809008DF80A0033
:106D700001208DF80B0002A800F066F80321002026
:106D800000F04AFA0820009000208DF804000C2042
:106D90008DF8050001208DF806006846FFF7B4FD68
:106DA0000721002000F038FA8020009000208DF8A4
:106DB00004000C208DF8050001208DF806006846BF
:106DC000FFF7A2FD4FF4C06000F0A4F807208DF893
:106DD000080000208DF809008DF80A0001208DF8C8
:106DE0000B0002A800F030F84FF40030FFF776FDFA
:106DF0004FF40030009000208DF8040008208DF83A
:106E0000050001208DF806006846FFF77DFD022091
:106E10008DF8080000208DF809008DF80A00012087
:106E20008DF80B0002A800F00FF81B208DF8080069
:106E300000208DF809008DF80A0001208DF80B0064
:106E400002A800F001F80EBD70B500210022002359
:106E5000C478002C4DD02C4C246804F4E064B4F5C4
:106E6000E06F02D100BF042326E0274C246804F41D
:106E7000E064B4F5C06F02D1012203231CE0224C70
:106E8000246804F4E064B4F5A06F02D10222022366
:106E900012E01D4C246804F4E064B4F5806F02D164
:106EA0000322012308E0184C246804F4E064B4F5DC
:106EB000407F01D1042200234478C2F1040504FA82
:106EC00005F18478C3F104060F2535412C40214398
:106ED00009010E4C0678A155047804F01F05012421
:106EE000AC4005786D11AD0005F1E025C5F8004115
:106EF00009E0047804F01F040125A540044C06783D
:106F0000761144F8265070BD0CED00E000E400E07E
:106F100080E100E002490143024A1160704700002D
:106F20000000FA050CED00E0024A0A400243024B61
:106F30001A60704780FFFF1F08ED00E070470000F7
:106F40000B49496821F44041094A5160114649689A
:106F500082B21143064A51601146096B21F48071D7
:106F600011631146096B41EA10411163704700003B
:106F70000010024029B1064A52690243044B5A618B
:106F800004E0034A52698243014B5A617047000092
:106F90000010024029B1064AD2690243044BDA616B
:106FA00004E0034AD2698243014BDA617047000072
:106FB0000010024029B1064A12690243044B1A61CB
:106FC00004E0034A12698243014B1A6170470000D2
:106FD0000010024029B1064A92690243044B9A61AB
:106FE00004E0034A92698243014B9A6170470000B2
:106FF0000010024029B1064AD2680243044BDA600D
:1070000004E0034AD2688243014BDA607047000013
:107010000010024010B51548FFF792FF01214FF410
:10702000C020FFF7A7FF01214802FFF7D3FF01218E
:1070300044F20100FFF7CEFF01210807FFF7AAFF86
:10704000032000F0D9F801214FF4C020FFF792FF90
:1070500001214804FFF79EFF01218803FFF7BAFFD3
:1070600001210803FFF7B6FF10BD000000800001FA
:10707000F0B5002100220024002500260023584FEF
:107080007F6807F00C0121B1042905D008292BD114
:1070900005E0544F07602AE0524F076027E0504F49
:1070A0007F6807F470124E4F7F6807F00064E70EA8
:1070B0003C0104EB92420F2A01D3521C00E0921CC7
:1070C000474F7F6807F480351DB9474F5743076026
:1070D00009E0434FFF6A07F00F077E1C414FB7FBE3
:1070E000F6F75743076002E03E4F076000BF00BF5E
:1070F0003B4F7F6807F0F00109093C4F7B5C076854
:10710000DF404760364F7F6807F4E061090A384F77
:107110007B5C4768DF408760314F7F6807F46051D0
:10712000C90A334F7B5C4768DF40C7602C4F3F6B19
:1071300007F48077B7F5807F02D02E4F07611FE0FC
:10714000274F7F68C7F3813131B1012908D0022967
:107150000AD0032913D10EE0C7687F0807610EE04B
:10716000C768BF0807610AE04FF0060CC768B7FBA5
:10717000FCF7076103E0C768FF08076100BF00BFB5
:10718000174F3F6B07F04007402F03D048F212071C
:10719000476102E04FF400474761114F3F6B07F032
:1071A000030717B9C768876119E00D4F3F6B07F0F8
:1071B0000307012F02D10768876110E0084F3F6B7A
:1071C00007F00307022F02D1BF03876107E0044FD6
:1071D0003F6B07F00307032F01D1024F8761F0BD1A
:1071E0000010024000127A0000093D001400002047
:1071F00024000020809FD5000549096B21F0030180
:10720000034A11631146096B014311637047000083
:10721000001002407047000030B500228B071C0FA1
:107220000F2303FA04F20B4B8C1053F824309343D2
:10723000084C8D1044F8253023468C1053F8243028
:107240008C07240F00FA04F42343024C8D1044F8F9
:10725000253030BD0800014010B500F001F810BD28
:107260001A4840681949486008464068486008461E
:10727000406848600846406815490840134948601E
:1072800008464068134908431049486008460068AA
:1072900040F08070086000BF0C48006800F000708B
:1072A0000028F9D00948406820F0030007494860E9
:1072B0000846406840F00200486000BF034840684C
:1072C00000F00C000828F9D17047000000100240BF
:1072D000FFFFC2F7000004087047000010B519480E
:1072E000006840F0010017490860084640681649E8
:1072F000084014494860084600681449084011498C
:1073000008600846006820F480200860084640684D
:107310000F4908400B4948600846C06A20F00F003A
:10732000C8620846006B40F2431188430549086370
:107330000846406B20F00100486300208860FFF79A
:107340008BFF10BD001002400C003F08FFFFF6FE4F
:10735000FFFFC0F700220288154B984205D0B0F11C
:10736000804F02D0134B984204D14FF68F731A40CE
:107370004B881A43104B984204D04FF6FF431A40F3
:107380000B891A4302804B68C3620B880385084B44
:10739000984208D0094B984205D0094B984202D038
:1073A000084B984201D18B7A038601238382704770
:1073B000002C01400004004000100040004001404B
:1073C000004401400048014021B1028842F001021E
:1073D000028004E002884FF6FE731A400280704774
:1073E0000146486A70474162704700002DE9F0414C
:1073F000002500240821594800F03FF930B1082148
:10740000564800F0B9F8554800F0FAF85449534886
:1074100000F033F900287DD0504800F0F1F8C6B2F2
:1074200050480078282823D24F48007800BB4F48A6
:107430004C49097846544B480078401C494908702B
:1074400008460078012807D148480578AF2D01D0BB
:107450000020087000250BE042480078022807D180
:1074600042484478AF2C02D000203E4908700024E6
:107470003C48007828286ED13C4840783B49097840
:1074800000EB01203A49088008460478008804EBA4
:107490002020C4B23548807888700846807820441F
:1074A000C4B23248C078C8700846C0782044C4B21C
:1074B0002E4800790871084600792044C4B200259E
:1074C0000AE0681D2949095C2948401D4155405D75
:1074D0002044C4B2681CC5B2202DF2DB234890F8CA
:1074E0002500234981F82500204890F827001F49EE
:1074F00091F8261000EB01201D49C8840846008839
:107500004AF6AF71884218D11948C08C4FF6FA215B
:10751000884200E015E010D1154890F82500A042FF
:1075200003D101201049087007E0114F384644711B
:107530002821384600F0B2FC00BF0020094908703D
:1075400009E00C49054800F098F8012803D10949E1
:10755000024800F011F8BDE8F08100000038014059
:10756000050105006D0000206C000020E4000020F3
:10757000BC0000201603140010B5002200230A0CE2
:10758000012404FA02F3036210BD000000B589B0C3
:10759000002206211848FFF758FB00220721164851
:1075A000FFF753FBC020079002208DF82000002039
:1075B0008DF8220002208DF8210000208DF8230094
:1075C00007A90D48FFF7FEFA0C4800F023F84FF426
:1075D00016500190002002900390049006900C2019
:1075E000059001A9054800F08BF80121034800F03F
:1075F00031F809B000BD0000000400480038014027
:107600000146888CC0F308007047C1F30802028568
:107610007047000010B504460C48844209D101218E
:107620008803FFF7E7FC00214FF48040FFF7E2FCFE
:107630000BE00748844208D101214804FFF7BAFC57
:1076400000214FF40030FFF7B5FC10BD00380140B9
:107650000044004021B1026842F00102026003E0F0
:10766000026822F00102026070470246D0690840B9
:1076700008B1012070470020FCE730B502460B46F8
:10768000002400210025C3F30725D9B2012000FA08
:1076900001F1012D02D11068014006E0022D02D156
:1076A0005068014001E0906801401C0C012000FA84
:1076B00004F4D069044011B10CB1012030BD0020A8
:1076C000FCE7F0B5034600250020184601F47F458D
:1076D000CCB2B5F5407F01D1083003E0B5F5007FAD
:1076E00000D1001D2AB106680127A7403E4306606D
:1076F00004E007680126A640B7430760F0BD00001C
:107700002DE9F04188B004460D460027B846002612
:10771000206820F001002060666826F44056A868C2
:1077200006436660266841F20C608643E968686833
:1077300008432969084306432660A66826F4407674
:1077400068690643A66001A8FFF792FC1A488442C4
:1077500002D1DDF81C8001E0DDF80C80206800F427
:10776000004060B14FEA48002968B0FBF1F74FEAEA
:1077700048002968B0FBF1F201FB120607E0286817
:10778000B8FBF0F72868B8FBF0F100FB1186286819
:10779000B6EB500F00D37F1C206800F4004038B1D6
:1077A000C7F342064FF6F07107EA010040EA060708
:1077B000A78108B0BDE8F0810038014000BFFEE7B6
:1077C00002E008C8121F08C1002AFAD170477047AA
:1077D000002001E001C1121F002AFBD17047000008
:1077E000002000BF04E00021034A1154411CC8B22C
:1077F0002028F8DB704700009C00002010B50446EC
:1078000003E04FF47A7000F006F82000A4F10101C3
:107810008CB2F6D110BD10B5044601218807FFF7E0
:10782000D3FD21464FF08040FFF7DDFD04E04FF02F
:107830008040FFF7D5FD84B2012CF8DC00214FF029
:107840008040FFF7C1FD10BDF648F7490860FFF71B
:10785000E1FBFFF733F9FFF770FA4FF4C8414FF03F
:107860000060FFF761FB45F25550FFF73BFA062039
:10787000FFF72CFA4FF44360FFF72EFAFFF71EFADA
:10788000FFF714FAFEF7EAFE4FF480714FF09040D4
:10789000FFF708FA40214FF09040FFF703FAFFF797
:1078A00075FE0122E149E248FFF70BFFFEF7BCFF3E
:1078B000FFF796FF0020DF4908700122B52000F095
:1078C00011FBDD48DD490860084600680068DC49B6
:1078D000086008460068D4490968884207D000F06B
:1078E000ADFAD048001FD049086000F043FB0120EA
:1078F000D44908708DE220214FF09040FFF7D2F973
:10790000022201210846FEF709FF0120FEF776FF5B
:107910000220FFF773FFFEF7CDFECB490880CB496D
:107920000968C94A1288881800EBD0714910C74A03
:107930001160022201211046FEF7F0FE0120FEF741
:107940005DFF0220FFF75AFFFEF7B4FEC049088032
:10795000C0490968BE4A1288881800EBD0714910E6
:10796000BC4A116020214FF09040FFF799F908219F
:107970004FF09040FFF78CF9B7490870B3480068A2
:1079800040F2F54188421DDAB44800680A2810DD4B
:107990004FF480714FF09040FFF782F940214FF093
:1079A0009040FFF77DF90020A6490870AB490860B8
:1079B00004E0AA480068401CA84908600020A849C3
:1079C00008605EE0A148006840F28551884241DAD3
:1079D00008214FF09040FFF75BF9A8B9994800786B
:1079E00000280DDD4FF480714FF09040FFF75AF9F9
:1079F00040214FF09040FFF755F900209949087059
:107A000000209749086021E09248006850281ADD5C
:107A1000934800680A2805DA91480068401C90499C
:107A2000086013E04FF480714FF09040FFF738F991
:107A300040214FF09040FFF733F900208149087052
:107A40008749086002E000208549086000208349DA
:107A5000086016E07B48007800280DDD4FF4807147
:107A60004FF09040FFF71EF940214FF09040FFF794
:107A700019F900207B49087000207949086077498E
:107A8000086080214FF09040FFF702F928B976484E
:107A90000068401C7449086002E0002072490860D8
:107AA000FFF70CF94FF47A70FFF7A8FE6A480078E8
:107AB000002855D163480078002851D06B480068F1
:107AC0006B490968884205D268480068401C6749CC
:107AD00008600AE06548006865490968884204D37F
:107AE00064480068401C6349086062480068624955
:107AF000096888425BD9FFF773FE00224D49A22036
:107B000000F0F0F94FF480714FF09040FFF7C8F8A3
:107B100040214FF09040FFF7C3F841F28830FFF763
:107B20006DFE4FF480714FF09040FFF7BBF840219D
:107B30004FF09040FFF7B6F880214FF09040FFF7EC
:107B4000AFF840F6B830FFF759FE80214FF0904073
:107B5000FFF7A8F80020454908604649086026E07C
:107B60003D48007818B3FFF73BFE42480068000E1E
:107B7000304908703F480068000C48703D48008854
:107B8000000A88703B480078C87038480068000ECA
:107B9000087136480068000C487134480088000AB3
:107BA000887132480078C871C820FFF727FE334833
:107BB0000078012868D13248C078B02865D1FFF735
:107BC0000FFE1D481D4908600846006800681649F8
:107BD00008602C480068000E1649087029480068A3
:107BE000000C487027480088000A887025480078F3
:107BF000C8700D480068000E08710B480068000C42
:107C0000487109480088000A887107480078C871DF
:107C10004FF4FA70FFF7F2FD08220649B12000F098
:107C200061F9C7E00801000190000020050105008E
:107C3000003801409C0000200C9C000868000020D7
:107C4000500000202C0000204A0000203C000020B2
:107C50004C000020400000202D00002034000020B7
:107C6000380000202E00002030000020600000209E
:107C7000540000205C000020580000206C00002010
:107C8000BC0000206400002098E06248C078BE2854
:107C900068D1FFF7A5FD5F48007A01065D48C0790D
:107CA00001EB00415B48807901EB0020594949799B
:107CB0000844594908600846006820B94FF4967096
:107CC0005649086003E05448006854490860534826
:107CD0000068534908604F48007B01064D48C07A50
:107CE00001EB00414B48807A01EB00214948407A82
:107CF0000844494908600846006818B93C204949C9
:107D0000086003E04448006846490860002046498E
:107D1000086044480068000E444908704148006803
:107D2000000C48703F480088000A88703D48007881
:107D3000C8703B480068000E087139480068000CA4
:107D4000487137480088000A887135480078C87142
:107D50004FF4FA70FFF752FD08223449BF2000F0BB
:107D6000C1F827E02B48C078B22809D1FFF738FDC9
:107D700000202E4908700122B32000F0B3F819E06A
:107D80002448C078B62806D14FF4FA70FFF736FDC4
:107D9000FEF7AEFF0EE01F48C078B4280AD14FF4BA
:107DA000FA70FFF72BFD0020204908700122B52052
:107DB00000F098F800201E4908702AE0FFF710FD37
:107DC00019480068000E1949087017480068000C2F
:107DD000487015480088000A887013480078C870F9
:107DE0000F480068000E08710D480068000C4871CB
:107DF0000B480088000A887109480078C8710D484E
:107E0000007808720C480088000A48720A48007816
:107E1000887270E5BC000020500000205400002053
:107E200060000020580000205C0000209C00002022
:107E30006C000020300000203C0000201148124956
:107E40000860084600680068104908600D48001D79
:107E50000D4908600846006800680D490860094837
:107E60000830094908600846006800680949086048
:107E700004480C3004490860084600680068064958
:107E800008607047009C00088000002084000020EB
:107E9000880000208C000020900000202DE9F04197
:107EA00006460F46002413E00C4D00E06D1E4021F5
:107EB0000B48FFF7DAFB08B9002DF7DC00BF002DF7
:107EC00004DD315D0648FFF7A0FB00E002E0641C22
:107ED000BC42E9DB00BFBDE8F081000000127A007F
:107EE000003801402DE9F047074688461646DFF87E
:107EF0008090002500244AF6AF7049460880084665
:107F00000578008805EB2020C5B208468078284413
:107F1000C5B20846C770C0782844C5B20846067185
:107F200000792844C5B200BF12E0B44204DB00214E
:107F30000F48401D015504E018F804100C48401D7E
:107F400001550B48401D005D2844C5B2601CC4B2F9
:107F5000202CEADB064880F825504FF6FA20044929
:107F6000C88428214846FFF799FFBDE8F087000044
:107F7000BC00002010B5FEF77DFD3420FEF70EFD9D
:107F80001948FEF711FD3420FEF708FD1748016877
:107F90001548FEF74FFD164908703420FEF7FEFC29
:107FA000144801681048001DFEF744FD1049087090
:107FB0003420FEF7F3FC104801680B480830FEF748
:107FC00039FD0B4908703420FEF7E8FC0B480168C6
:107FD00005480C30FEF72EFD054908703420FEF7E9
:107FE000DDFCFEF71DFD10BD009C00088400002094
:107FF00070000020880000208C00002090000020ED
:1080000020800008000000209C000000C0770008CD
:10801000BC8000089C00002084040000D077000889
:1080200000A24A0400000000000000000102030456
:108030000607080900000000000000000102030418
:108040000607080900000000010203040000000008
:108050000000000000000000000000000000000020
:108060000000000000000000000000000000000010
:10807000000000002C0100003C0000000000000097
:1080800000000000010203040000000000000000E6
:1080900000000000000000000000000000000000E0
:1080A00000000000000000000000000000000000D0
:0C80B000000000000000000000000000C4
:04000005080065C3C7
:00000001FF
